:020000040800F2
:10000000380E00201D210008711000087310000830
:10001000771000087B1000087F1000080000000027
:100020000000000000000000000000008310000835
:1000300085100008000000008710000889100008E3
:100040003721000837210008372100083721000830
:100050003721000837210008372100083721000820
:100060003721000837210008372100083721000810
:100070003721000837210008372100083721000800
:1000800037210008372100083721000837210008F0
:1000900037210008372100083721000837210008E0
:1000A00037210008372100083721000837210008D0
:1000B00037210008372100083721000837210008C0
:1000C00037210008372100083721000837210008B0
:1000D000372100087F20000845200008651F000820
:1000E0003721000837210008372100083721000890
:1000F0003721000837210008372100083721000880
:100100003721000837210008B319000837210008FB
:100110002B1F0008F11E00083721000837210008B6
:10012000372100083721000837210008372100084F
:1001300000F002F800F05AF80AA090E8000C82449F
:100140008344AAF10107DA4501D100F04FF8AFF27C
:10015000090EBAE80F0013F0010F18BFFB1A43F0A5
:1001600001031847CC4E0000EC4E00000A444FF04B
:10017000000C10F8013B13F0070408BF10F8014B06
:100180001D1108BF10F8015B641E05D010F8016B4B
:10019000641E01F8016BF9D113F0080F1EBF10F8AF
:1001A000014BAD1C0C1B09D16D1E58BF01F801CBD2
:1001B000FAD505E014F8016B01F8016B6D1EF9D555
:1001C0009142D6D37047000000230024002500266A
:1001D000103A28BF78C1FBD8520728BF30C148BFAA
:1001E0000B6070471FB51FBD10B510BD03F0E0FEDA
:1001F0001146FFF7F7FF00F009F803F0FEFE03B425
:10020000FFF7F2FF03BC01F0DBFC000088B001F057
:1002100069FC01F0CFFC4FF4E13001F0DFFC4FF45A
:10022000E13001F076FD4FF4E13001F010FE01F015
:100230001BF801F053F801F021FC01F003FC01F080
:1002400009FA01F0A9F841F61F41092001F084FBE9
:100250000120FE4908604FF00000FD49C1F880010F
:100260004FF00100FB490870FB490870FB4908701A
:10027000FB490870FB490870FB49FC4801F001F993
:1002800001460790302001F0B7F8FDE3002001F0AF
:1002900045FBA0F2E920009004F00EFD019004F06F
:1002A0008FFB0022F24BCDE9020104F06BF9002232
:1002B000F04BCDE9040103F091FFCDE9060103F015
:1002C000A7FEED490860012001F028FBA0F2E9201B
:1002D000009004F0F1FC019004F072FB0022E74B67
:1002E000CDE9020104F04EF90022E24BCDE9040110
:1002F00003F074FFCDE9060103F08AFEE0490860CF
:10030000022001F00BFBA0F2E920009004F0D4FCE5
:10031000019004F055FB0022DA4BCDE9020104F014
:1003200031F90022D34BCDE9040103F057FFCDE9A9
:10033000060103F06DFED4490860032001F0EEFAD7
:10034000A0F2E920009004F0B7FC019004F038FB23
:100350000022CE4BCDE9020104F014F90022C54B76
:10036000CDE9040103F03AFFCDE9060103F050FEA8
:10037000C7490860042001F0D1FAA0F2E9200090FA
:1003800004F09AFC019004F01BFB0022C14BCDE964
:10039000020104F0F7F80022B64BCDE9040103F0A6
:1003A0001DFFCDE9060103F033FEBB4908600520BF
:1003B00001F0B4FAA0F2E920009004F07DFC019075
:1003C00004F0FEFA0022B34BCDE9020104F0DAF8A2
:1003D0000022A84BCDE9040103F000FFCDE906019E
:1003E00003F016FEAD490860062001F097FAA0F26E
:1003F000E920009004F060FC019004F0E1FA002292
:10040000A44BCDE9020104F0BDF80022994BCDE9DF
:10041000040103F0E3FECDE9060103F0F9FDA04974
:100420000860072001F07AFAA0F2E920009004F0B9
:1004300043FC019004F0C4FA0022964BCDE902017E
:1004400004F0A0F800228B4BCDE9040103F0C6FEB6
:10045000CDE9060103F0DCFD92490860082001F0B7
:100460005DFAA0F2E920009004F026FC019004F06F
:10047000A7FA00228C4BCDE9020104F083F8002298
:100480007C4BCDE9040103F0A9FECDE9060103F0A0
:10049000BFFD86490860092001F040FAA0F2E9207A
:1004A000009004F009FC019004F08AFA0022794BD4
:1004B000CDE9020104F066F800226E4BCDE904019B
:1004C00003F08CFECDE9060103F0A2FD7849086037
:1004D0000A2001F023FAA0F2E920009004F0ECFBDE
:1004E000019004F06DFA0022724BCDE9020104F094
:1004F00049F800225F4BCDE9040103F06FFECDE91E
:10050000060103F085FD6C4908600B2001F006FA36
:10051000A0F2E920009004F0CFFB019004F050FA23
:100520000022564BCDE9020104F02CF80022514B79
:10053000CDE9040103F052FECDE9060103F068FDA8
:100540005E4908600C2001F0E9F9A0F2E920009072
:1005500004F0B2FB019004F033FA0022474BCDE9DE
:10056000020104F00FF80022424BCDE9040103F030
:1005700035FECDE9060103F04BFD514908600D2021
:1005800001F0CCF9A0F2E920009004F095FB019075
:1005900004F016FA0022394BCDE9020103F0F2FF14
:1005A0000022344BCDE9040103F018FECDE9060129
:1005B00003F02EFD434908600121002000F0B1FF47
:1005C0004EF660214843404908600121002000F0B8
:1005D000A8FF4FF47A7148433C490860012100208C
:1005E00000F09FFF4FF47A714843394908600121B8
:1005F000002000F096FF4EF6602148433549086020
:100600000121002000F08DFF00EBC00040013249C5
:1006100008600121002000F084FF3049088001219A
:10062000002000F07EFF2E4908800121002000F00C
:1006300078FFC0EB001080002A49086001210020EB
:1006400000F06FFF28490870284851E084012442D7
:1006500000002442B3000020450000204600002096
:100660004700002048000020000060400000A0403B
:10067000000048400046A7407400002000004940A8
:1006800078000020000044407C00002000002C4046
:1006900080000020000059408400002088000020D5
:1006A0008C0000209000002000002E4094000020CC
:1006B0009800002000408F409C000020A0000020F7
:1006C000A4000020A8000020080000200C0000204A
:1006D00010000020140000201800002068000020F6
:1006E0006A0000206C0000204A000020600000200A
:1006F000006804F0E1FA0790FE480168079804F0EA
:10070000EFFA0AD9FC48006804F0D6FA0790FB48D3
:100710000168079804F0E4FA0AD8F9480078042838
:1007200006D0F7480078F74908700420F4490870AB
:10073000F5480078012829D1F4480168F448006898
:1007400004F000FC059004F03BF921F00041002288
:10075000F04BCDE9060104F013F817D2EB4801681D
:10076000EB48006804F0BCFA08D24FF07E51EA482A
:10077000006804F051F9E849086007E04FF07E5145
:10078000E548006804F0DEFBE3490860DE480078D5
:1007900010B90020E0490860D948007801287DD1CF
:1007A000DE480078012802D1D74908700AE0DB480A
:1007B0000078022803D10020D349087002E001200C
:1007C000D1490870D6480168CA48006804F088FB1F
:1007D00005D8D4480078012801D1D3490880D148F0
:1007E0000078012816D1D148006847F2305188427C
:1007F00010D30020CC490880CC4908600120CC49A6
:100800000860CC49C1F894014FF00200C349087058
:10081000C4490870C348007802280CD1C648016852
:10082000B448006804F05CFA05D80120BE4908808D
:100830000320BC490870BB480078032813D1BB488B
:10084000006843F6982188420DD30020B6490880FD
:10085000B6490860B6490860B649C1F894014FF03E
:100860000400B0490870AF480078042808D1B348A4
:10087000006828B90120AC4908800520A949087002
:10088000A848007805280FD1A848006843F69821A9
:10089000884209D30020A449088000E03FE0A34932
:1008A000086003209D490870A5480078012801D1FF
:1008B000A4490880A2480078012815D1A248006800
:1008C000A249096888420FD300209E4908809E49AA
:1008D000086001209E4908604FF0020098490870A6
:1008E0004FF001009749088095480078022810D100
:1008F000954800689749096888420AD300209149C1
:10090000088091490860924908604FF001008C49C5
:10091000087091480078012801D190490860784812
:10092000007802287ED18E4800684EF66021884209
:1009300021D300208B490860894908608A480068F3
:1009400004F03EF80022894BCDE9000103F046FC9B
:10095000CDE904018648006803F0C5FDCDE9020138
:10096000DDE9042303F086FBCDE9060103F08EFDEB
:100970007F49086002E001207A49086067480078F2
:10098000012802D1604908700AE064480078022812
:1009900003D100205C49087002E001205A49087028
:1009A00060480078012801D15F4908805F480068ED
:1009B00070490968884207D300205B4908805B4979
:1009C00008600220574908705648007802284ED126
:1009D000524908706848006804F06EF90290674850
:1009E000008804F069F9009065480168009804F0F7
:1009F000ABF90190029904F0A7F9039061480168EE
:100A0000039804F077F805905F48008804F054F9E3
:100A100001905C480168019804F096F903905448ED
:100A2000006800E0EAE004F047F90290039904F05E
:100A300061F80490059904F085FA5449069004F091
:100A400083F9079004F018F95149086008460068D6
:100A50005049096888420AD30320304908700120B0
:100A600031490880324908603249C1F894012D4863
:100A70000078032815D12D48006845490968884247
:100A80000FD30020284900E05CE208802749086075
:100A90000420244908700020254908602549C1F830
:100AA000940120480078042808D1244800680128CF
:100AB00004D11D49088005201A490870194800789A
:100AC00005280DD11948006843F69821884207D3BC
:100AD0000020154908801549086003200F49087057
:100AE00017480078012801D1164908801448007879
:100AF000012851E07C0000206400002098000020C4
:100B00004A0000204B000020000000207000002060
:100B10007800002000001440040000204500002060
:100B20005000002046000020F6000020EC000020CD
:100B3000800124420000244254000020000123428E
:100B400047000020F8000020F000002008000020EE
:100B5000880124420C000020480000208C0124421F
:100B6000FC000020000100209400002000004E4006
:100B70001C000020140000206C0000206A000020EF
:100B8000A8000020A40000206800002000006145AB
:100B9000200000202C00002015D1FE480068FE49EE
:100BA000096888420FD30020FC490880F949086091
:100BB0000120FB4908604FF00200FA4908704FF02D
:100BC0000100F6490880F7480078022810D1F14862
:100BD0000068F549096888420AD30020EF49088077
:100BE000EC490860EE4908604FF00100ED490870DB
:100BF000EE480078012801D1ED490860ED48007801
:100C000003287DD1EC4800684EF66021884228D345
:100C10000020EA490860E8490860E948006803F0F4
:100C2000CFFE0022E74BCDE9000103F0D7FACDE972
:100C30000401E548006803F056FCCDE90201DDE956
:100C4000042303F017FACDE9060103F01FFCDE4987
:100C50000860DE49DE48006803F0DEFEDC4908601B
:100C600002E00120D5490860DA480078012802D165
:100C7000D94908700AE0D7480078022803D100203B
:100C8000D549087002E00120D3490870D3480078A4
:100C9000012848D1D248008804F00EF80490D148C9
:100CA0000168049804F050F80590C9480168059857
:100CB00004F04AF80790C4480068CB490988B0FBA3
:100CC000F1F0059003F0F8FF0690079904F03AF967
:100CD000C64908600020C6490860C6490870C64871
:100CE000006803F06DFEC54AC54BCDE9020103F073
:100CF00049FCCDE90601BD48006803F061FE00E053
:100D00009DE0CDE90401DDE9062303F039FD0AD8B1
:100D10000020B7490860B74908704FF00200AF499A
:100D20000870AC490870AD480078022810D1B54869
:100D3000006868B90120B4490860B449C1F8940159
:100D40004FF00300A54908704FF00100B04908803A
:100D5000A2480078032813D1AE480068AE4909685C
:100D600088420DD30020AA490880AA490860A649F4
:100D70000860A649C1F894014FF004009749087033
:100D80009648007804280DD1A448006850B9012085
:100D900097490860974908709D4908804FF0050001
:100DA0008E4908708D48007805280DD19948006853
:100DB00043F69821884207D3002095490880954939
:100DC000086003208349087076480078012801D123
:100DD0007249088073480078012815D16D48006871
:100DE0006D49096888420FD300206C490880694921
:100DF000086001206A4908604FF0020069490870E4
:100E00004FF001006549088066480078022810D13B
:100E1000604800686449096888420AD300205F4935
:100E200008805C4908605E4908604FF001005D4938
:100E300008705E480078012801D15D4908605D486E
:100E4000007804287ED10120754908607549087032
:100E50007549088073480078012814D173480068E8
:100E600047F2305188420ED300206E4908706F4916
:100E700008600120644908606449C1F894014FF09A
:100E800002006849087067480078022808D1634862
:100E90000068012804D16449088003206149087072
:100EA00060480078032813D16048006860490968E9
:100EB00088420DD300205C4908805C490860524993
:100EC00008605249C1F894014FF004005549087078
:100ED00054480078042808D15048006828B90520F3
:100EE000504908700120504908804E480078052874
:100EF0000DD14E4800684F490968884207D3002049
:100F00004949088049490860062046490870454813
:100F1000007806282CD14848006803F0CDFE0790E1
:100F200046480168079803F0DBFE1AD202203D49CB
:100F3000087043480068401C414908600846006842
:100F4000404900E082E00968884206D201202E492B
:100F500008602E49C1F894010AE007203149087061
:100F600006E000202E4908603748007811490870D3
:100F70002C480078072873D12F48006803F09CFEA6
:100F800007902E480168079803F0AAFE61D202205C
:100F900008495CE0F000002008000020F800002074
:100FA00088012442470000200C0000204800002057
:100FB0008C0124424A000020FC0000200001002097
:100FC0009400002000004E401C00002000007042F1
:100FD00038000020450000200000002046000020CE
:100FE0006A000020A80000206800002030000020D7
:100FF00084012442B300002034000020AE47E17A8F
:1010000014AEEF3F04012342800124420000244239
:10101000F6000020EC0000204000002000012342E8
:101020009001244249000020F4000020E800002044
:101030002400002028000020580000207C00002010
:101040004C0000205C0000204B00002008E00870ED
:1010500006E000200349086003480078034908704F
:10106000FFF714B9900124424B0000204A000020F1
:10107000704700BFFEE700BFFEE700BFFEE700BF0E
:10108000FEE7704770477047704700000CB50020BE
:10109000019000906B48006840F480306949086016
:1010A00000BF6848006800F4003000900198401CC0
:1010B0000190009818B90198B0F5A06FF1D161487E
:1010C000006810F4003F02D00120009001E00020F1
:1010D00000900098012842D15B48006840F0100061
:1010E000594908600846006820F003000860084677
:1010F000006840F00200086052484068514948606A
:101100000846406848600846406840F4806048608F
:101110000846406820F47C1048600846406840F467
:10112000E81048600846006840F08070086000BF22
:101130004448006810F0007FFAD04248406820F030
:101140000300404948600846406840F0020048609B
:1011500000BF3C48406800F00C000828F9D10CBDE5
:1011600010B5FFF793FF10BD10B53648006840F08A
:101170000100344908600846406834490840314954
:10118000486008460068324908402E490860084611
:10119000006820F4802008600846406820F4FE00C3
:1011A00048604FF41F008860FFF7DAFF4FF00060DF
:1011B0002849086010BD10B5002100200022214BF5
:1011C0005B6803F00C0121B1042906D0082928D15D
:1011D00007E0214B214C236027E01F4B1F4C23606D
:1011E00023E0184B5B6803F47010164B5B6803F444
:1011F0008032022303EB904022B9194B4343174C32
:1012000023600DE00F4B5B6813F4003F04D0144BD8
:101210004343124C236003E00F4B43430F4C2360C6
:1012200003E00D4B0D4C236000BF00BF054B5B6816
:10123000C3F303130B4CE15C084B1B68CB40074C1A
:10124000236010BD00100240002002400000FFF8A3
:10125000FFFFF6FE08ED00E000127A00BC0000205F
:1012600000093D00C000002008B50121582001F010
:10127000F9FA2020ADF8000010208DF803000320BB
:101280008DF802006946124801F036F82021104816
:1012900001F0DDF82020ADF8000069460D4801F0AE
:1012A0002BF820210B4801F0D2F80120ADF8000006
:1012B00010208DF8030003208DF8020069460648CF
:1012C00001F01AF80121044801F0C1F808BD00003E
:1012D000000C0140001801400010014008B5012138
:1012E000802001F0BFFA0720ADF8000048208DF8FB
:1012F00003006946264800F0FFFF08BD10B504460C
:1013000014B10120234908702248007848B3012114
:101310001F4801F082F848B102211D4801F07DF814
:1013200020B104211A4801F078F8D0B90A2000F061
:1013300015FC0020174908700121154801F06DF8CF
:1013400008B9012010BD0221114801F066F808B962
:101350000220F7E704210E4801F05FF8A8B9032046
:10136000F0E701210A4801F058F801280DD10221C7
:10137000074801F052F8012807D10421044801F080
:101380004CF8012801D1034908700020DAE7000079
:10139000001C0140D000002008B50121402001F0D0
:1013A00061FA4FF40050ADF8000010208DF80300F2
:1013B00003208DF8020069463C4800F09DFF4FF481
:1013C0008040ADF8000010208DF8030003208DF858
:1013D00002006946354800F08FFF4FF40040ADF839
:1013E000000010208DF8030003208DF802006946EC
:1013F0002E4800F081FF08BD10B5024601232C4C99
:1014000023604FF000032B4CC4F8B431184617E0AA
:101410000123294C236012F0800F03D004F104044F
:10142000236002E00023254C23604FF00003224C90
:1014300023604FEA42634FEA136200F10103D8B21E
:101440000828E5DB002016E001231B4C236011F483
:10145000004F02D0194C236002E00023174C236098
:101460004FF00003144C23604FF6FF7303EA410171
:1014700000F10103D8B21028E6DB01230C4C2360F5
:1014800010BD2DE9F04104460D4629464FF08F402E
:1014900003F05AFC8046214603F02CFB074603F07C
:1014A000EBFB86B23046BDE8F08100000018014039
:1014B000B401234200002342B8012342BC0123426D
:1014C0002DE9F04107460C461546E81C5C4988703A
:1014D0008220C870381208714F71022D02D1200A83
:1014E0008871CC71042D07D1200E55498871200CCC
:1014F000C871200A08724C7200260DE05048815DC8
:10150000504801F053FB00BF40214E4801F0BCFBA6
:101510000128F9D1701CC6B2A81DB042EEDCBDE8AE
:10152000F0812DE9F04105460C4603270420464989
:1015300088708320C870281208714D710846847124
:1015400000260DE04048815D3E4801F02FFB00BFC2
:1015500040213C4801F098FB0128F9D1701CC6B22B
:10156000072EEFDB642000F0D6FA28E03748008829
:1015700000B3012C06D1364840783549097840EA55
:10158000012813E0022C0FD13148007800063049C1
:10159000497840EA01402E49897840EA01202C49E7
:1015A000C97840EA010801E04FF00008002027490F
:1015B00008800127781EC7B2642000F0ACFA002F23
:1015C000D4D14046BDE8F08170B505460E460320F3
:1015D0001B4988708020C870084605714671002438
:1015E0000DE01748015D174801F0E0FA00BF402107
:1015F000144801F049FB0128F9D1601CC4B2062C43
:10160000EFDB70BD70B505460E4603200E498870AD
:101610008020C87008460571467100240DE00A4814
:10162000015D084801F0C2FA00BF4021054801F001
:101630002BFB0128F9D1601CC4B2062CEFDB70BD76
:10164000D100002000500040DB00002008010020F5
:101650003001002000B587B0012148F29C2001F044
:1016600001F94FF4004001F064F80120ADF80400E6
:1016700000208DF8070001A9B14800F03DFE0220CE
:10168000ADF8040000208DF8070001A9AC4800F077
:1016900033FE4020ADF8040000208DF8070001A9BA
:1016A000A84800F029FE8020ADF8040000208DF845
:1016B000070001A9A34800F01FFE1020ADF80400A8
:1016C00000208DF8070001A99D4800F015FE20209C
:1016D000ADF8040000208DF8070001A9984800F03B
:1016E0000BFE4020ADF8040000208DF8070001A992
:1016F000934800F001FE8020ADF8040000208DF832
:10170000070001A98E4800F0F7FD0120ADF80400A4
:1017100000208DF8070001A98B4800F0EDFD0220A4
:10172000ADF8040000208DF8070001A9864800F0FC
:10173000E3FD0120ADF8040000208DF8070001A9A9
:10174000824800F0D9FD0220ADF8040000208DF899
:10175000070001A97D4800F0CFFD0420ADF804008A
:1017600000208DF8070001A9784800F0C5FD082089
:10177000ADF8040000208DF8070001A9734800F0BF
:10178000BBFD1020ADF8040000208DF8070001A972
:101790006E4800F0B1FD2020ADF8040000208DF867
:1017A000070001A9694800F0A7FD694802F0D4F9D3
:1017B000684802F0D1F9002002908DF80C008DF8F5
:1017C0000D004FF4602004900020059001208DF85A
:1017D000180002A95E4802F0E6F902A95D4802F08D
:1017E000E2F901215A4802F00AFA594802F029FAAE
:1017F00000BF574802F02AFA0028FAD1544802F0F4
:101800002FFA00BF524802F030FA0028FAD1012125
:10181000504802F0F4F94F4802F013FA00BF4D4867
:1018200002F014FA0028FAD14A4802F019FA00BF6F
:10183000484802F01AFA0028FAD107B000BD10B5E6
:1018400004462CB1012C03D0042C16DB0F2C14DC25
:101850000723012221463E4802F03DFA01213C487F
:1018600002F00DFA00BF0221394802F079FB00288E
:10187000F9D0374802F096FA10BD022C01D0032CA3
:1018800014D1072301222146324802F024FA012113
:10189000304802F0F4F900BF02212E4802F060FB4C
:1018A0000028F9D02A4802F07DFAE5E70020E3E7B6
:1018B000F0B587B00746002507E03846FFF7BFFFC1
:1018C00001A921F81500681CC5B20B2DF5DB002518
:1018D0001DE0002415E001A9601C31F8100031F86A
:1018E000141088420BDA01A830F8146001A9601CBA
:1018F00031F8100021F81400601C21F81060601C01
:10190000C4B2C5F10A00A042E5DC681CC5B2062DD0
:10191000DFDBBDF80E60304607B0F0BD70B506469F
:101920000024002500BF05E03046FFF7C1FF044456
:10193000681CC5B20A2DF7DB0A20B4FBF0F070BDBD
:1019400000080140001C0140000C01400010014053
:1019500000240140003C01407FB505460C460121B2
:10196000082000F08CFFADF80850ADF804400020CE
:10197000ADF80A00ADF8060001A9284801F0B2FA56
:1019800001221146254801F024FE32208DF8000086
:1019900000208DF8010003208DF8020001208DF851
:1019A0000300684600F0DFFB01211C4801F0F6FD52
:1019B0007FBD10B50121194802F0B9F860B30121CB
:1019C000164802F0C5F816480068401C1449086023
:1019D00014480088012804D113480068401C1249AB
:1019E000086012480088012804D111480068401C92
:1019F0000F4908600F480088012804D10E4800688C
:101A0000401C0D4908600D480068012804D10C48AD
:101A10000068401C0A49086010BD0000000C00402E
:101A2000E4000020F4000020E8000020F600002080
:101A3000EC000020F8000020F00000200001002051
:101A4000FC00002008B50121080200F00BFF4FF652
:101A5000FF70ADF8000010208DF8030003208DF812
:101A600002006946044800F047FC4FF6FF71024847
:101A700000F0EFFC08BD0000002001401CB5012172
:101A8000402000F0EFFE40F2FF30ADF804001020DF
:101A90008DF8070003208DF8060001A90F4800F01B
:101AA0002BFC40F2FF310D4800F0D3FC0121202037
:101AB00000F0D8FE40F2FF30ADF8000010208DF8A5
:101AC000030003208DF802006946054800F014FC6D
:101AD00040F2FF31024800F0BCFC1CBD0018014080
:101AE0000014014010B56FF0040000F087FB2D4892
:101AF00000682D49B0FBF1F02C49087008460078C9
:101B000000EB4001C1EBC0104FF6FF7101EAC000CD
:101B10002749088010BD0146244A12784A434FF0F5
:101B2000E0235A6100229A611A46126942F00102CA
:101B30001A6100BF4FF0E022106910F0010F02D0CF
:101B400010F4803FF6D04FF0E022126922F001023B
:101B50004FF0E0231A6100229A6170470146144A4F
:101B600012884A434FF0E0235A6100229A611A46D4
:101B7000126942F001021A6100BF4FF0E0221069C1
:101B800010F0010F02D010F4803FF6D04FF0E022A9
:101B9000126922F001024FF0E0231A6100229A61DB
:101BA00070470000BC00002000127A0004010020F1
:101BB0000601002010B54FF4A06000F0CFFA10BD70
:101BC000014600BF704700BFFA4A128812F0400F6A
:101BD000FAD0C2B2F74B1B1D1A80704710B586B001
:101BE0000446012144F2040000F03CFEF14800F0FC
:101BF000A1FE4FF40070ADF8140003208DF816001C
:101C000018208DF8170005A9EB4800F075FB4FF47C
:101C10008060ADF8140004208DF8170005A9E6488F
:101C200000F06AFB25208DF8000002208DF80100ED
:101C300001208DF802008DF80300684600F093FA49
:101C400001940020ADF80800ADF80A00ADF80C00D2
:101C5000ADF810000C20ADF80E0001A9D54800F039
:101C6000ACFE012240F22551D24800F03EFF012196
:101C7000D04800F02EFF06B010BD10B586B0044667
:101C80000121480400F0FBFDCC4800F053FE042085
:101C9000ADF8140003208DF8160018208DF81700F9
:101CA00005A9C54800F028FB0820ADF81400042061
:101CB0008DF8170005A9C04800F01EFB26208DF8FE
:101CC000000002208DF801008DF8020001208DF83F
:101CD0000300684600F047FA01940020ADF80800C0
:101CE000ADF80A00ADF80C00ADF810000C20ADF80E
:101CF0000E0001A9B14800F060FE012240F225511A
:101D0000AE4800F0F2FE0121AC4800F0E2FE06B061
:101D100010BD10B586B004460121082000F0A2FDD8
:101D20000121880400F0ABFD4FF48060ADF8140091
:101D300003208DF8160018208DF8170005A9A0487B
:101D400000F0DAFA4FF40060ADF8140004208DF8CA
:101D5000170005A99A4800F0CFFA27208DF8000057
:101D600003208DF801008DF8020001208DF803009A
:101D7000684600F0F8F901940020ADF80800ADF8CD
:101D80000A00ADF80C00ADF810000C20ADF80E0004
:101D900001A98C4800F011FE012240F2255189482A
:101DA00000F0A3FE0121874800F093FE06B010BDAD
:101DB00010B586B004460121C80400F060FD8248D9
:101DC00000F0B8FD4FF48060ADF8140003208DF8EA
:101DD000160018208DF8170005A97C4800F08CFA31
:101DE0004FF40060ADF8140004208DF8170005A929
:101DF000764800F081FA34208DF8000003208DF839
:101E0000010002208DF8020001208DF803006846D1
:101E100000F0A9F901940020ADF80800ADF80A001F
:101E2000ADF80C00ADF810000C20ADF80E0001A9C3
:101E3000654800F0C2FD012240F22551624800F0E1
:101E400054FE0121604800F044FE06B010BD10B5FC
:101E500086B004460121102000F004FD012120205D
:101E600000F000FD0121080500F009FD4FF480504D
:101E7000ADF8140003208DF8160018208DF8170017
:101E800005A9524800F038FA0420ADF814008DF886
:101E9000170005A94E4800F02FFA35208DF80000F4
:101EA00003208DF8010001208DF802008DF8030059
:101EB000684600F058F901940020ADF80800ADF82C
:101EC0000A00ADF80C00ADF810000C20ADF80E00C3
:101ED00001A9404800F071FD002240F225513D4823
:101EE00000F003FE01213B4800F0F3FD06B010BDF9
:101EF00010B540F22551374800F0DCFEA0B135485E
:101F000000F058FEC4B234480088C82809DA3348C3
:101F100031490988445430480088401C2E490880C3
:101F200002E000202C49088010BD10B540F2255178
:101F3000254800F0BFFEA0B1234800F03BFEC4B22C
:101F400027480088C82809DA2648254909884454C2
:101F500023480088401C2249088002E000202049D4
:101F6000088010BD1748008810F0200F69D015496F
:101F7000091D0988C8B21C49098811F4004F5FD1B6
:101F80001949098811F4804F3FD00A2803D0002155
:101F9000154A118054E015490978032928D11249BE
:101FA000098841F40041104A118000210F4A117044
:101FB00046E00000003801400008014000440040B5
:101FC000000C014000480040004C0040001001405F
:101FD0000014014000500040100100204406002081
:101FE0000E0100207C0500200C01002018010020BB
:101FF00041490978491C404A1170404909884BF60B
:10200000FF7211403D4A11801AE00D2806D13B496C
:10201000098841F48041394A118011E03749098823
:10202000C1F30C01364A505434490988491C334ADB
:10203000118011460988B1F5FA7F01DB002111807A
:1020400000BF704710B540F225512E4800F032FE17
:10205000A0B12C4800F0AEFDC4B22B480088B0F50A
:10206000967F08DA284801880088401C264A10809C
:102070002648445402E000202349088010BD24482B
:10208000008810F0200F36D02149091D0988C8B2F8
:102090002049098811F4004F2CD11E49098811F4F8
:1020A000804F0CD00A2803D000211A4A118021E069
:1020B0001849098841F40041164A11801AE00D2898
:1020C00006D11449098841F48041124A118011E077
:1020D00010490988C1F30D010F4A50540D49098870
:1020E000491C0C4A118011460988B1F5967F01DB25
:1020F0000021118000BF7047180100200C01002052
:1021000088030020004400400A0100200C07002042
:1021100000380140080100203001002009488047B4
:1021200009480047FEE7FEE7FEE7FEE7FEE7FEE7B9
:10213000FEE7FEE7FEE7FEE704480549054A064BD1
:1021400070470000691100083101000838080020BC
:10215000380E0020380A0020380A00203149014397
:10216000314A1160704770B5002100230F22C478F6
:102170000CB32D4C246804F4E064C4F5E064210A37
:10218000C1F10403CA40447804FA03F1847814408E
:1021900021430901254C0678A155047804F01F0558
:1021A0000124AC4005786D114FF0E02606EB850563
:1021B000C5F8004109E0047804F01F050124AC4093
:1021C0001B4D0678761145F8264070BD194A0A4025
:1021D0000243154B1B1F1A60704739B1124A121D7A
:1021E00012680243104B1B1D1A6006E00E4A121DB6
:1021F000126882430C4B1B1D1A607047042808D1DB
:102200004FF0E021096941F004014FF0E022116133
:1022100007E04FF0E021096921F004014FF0E022CE
:10222000116170470000FA050CED00E000E400E0E9
:1022300080E100E080FFFF1F10B50446CA488442D9
:1022400008D10121042000F027FB0021042000F028
:1022500023FB46E0C548844208D10121082000F054
:102260001BFB0021082000F017FB3AE0C048844225
:1022700008D10121102000F00FFB0021102000F0F8
:102280000BFB2EE0BB48844208D10121202000F046
:1022900003FB0021202000F0FFFA22E0B648844230
:1022A00008D10121402000F0F7FA0021402000F081
:1022B000F3FA16E0B148844208D10121802000F0F1
:1022C000EBFA0021802000F0E7FA0AE0AC488442F3
:1022D00007D10121801500F0DFFA0021A01500F0E0
:1022E000DBFA10BD10B50121084600F0D5FA002137
:1022F000012000F0D1FA10BD2DE9F0410246002581
:102300000026002000230024002791F803C00CF0D1
:102310000F0591F803C01CF0100F03D091F802C014
:102320004CEA050591F800C0BCF1000F31D01468EB
:1023300000202BE04FF0010C0CFA00F3B1F800C0C4
:102340000CEA03069E4220D183004FF00F0C0CFADA
:1023500003F7BC4305FA03FC4CEA040491F803C0FC
:10236000BCF1280F06D14FF0010C0CFA00FCC2F8AA
:1023700014C00AE091F803C0BCF1480F05D14FF03A
:10238000010C0CFA00FCC2F810C0401C0828D1D384
:102390001460B1F800C0BCF1FF0F34DD54680020B8
:1023A0002EE000F1080C4FF0010808FA0CF3B1F828
:1023B00000C00CEA03069E4221D183004FF00F0CAF
:1023C0000CFA03F7BC4305FA03FC4CEA040491F849
:1023D00003C0BCF1280F05D100F1080C08FA0CF875
:1023E000C2F8148091F803C0BCF1480F07D100F186
:1023F000080C4FF0010808FA0CF8C2F81080401CD5
:102400000828CED35460BDE8F0814FF6FF710180FB
:10241000022181700421C170704702460020936838
:102420000B4201D0012000E000207047014688687F
:1024300080B2704702460020D3680B4201D00120D1
:1024400000E0002070470146C86880B27047016113
:102450007047416170470AB1016100E04161704716
:10246000C16070474FF480320A43826181618261AA
:1024700082698269704702460020424B18684FF615
:102480008073184040EA021008433E4B18607047C2
:102490003D49C8617047F0B50A4600230024002179
:1024A000002500F00046B6F1004F02D1354EF1692B
:1024B00001E0344E7168C0F3034583B200F4401666
:1024C000B6F5401F08D121F070612E4E766826F0D7
:1024D00070662C4F7E6012E000F48016B6F5801F07
:1024E00006D1032606FA05F4A14341F0706106E027
:1024F000460D360103FA06F6B14341F0706122B190
:10250000460D360103FA06F6314300F00046B6F1F7
:10251000004F02D11B4EF16101E01A4E7160F0BD17
:1025200030B500228B071C0F0F2303FA04F2154B62
:1025300008338C1053F824309343124C08348D1018
:1025400044F8253023468C1053F824308C07240F90
:1025500000FA04F423430B4C08348D1044F8253062
:1025600030BD0A490860704700080140000C014076
:10257000001001400014014000180140001C0140FF
:10258000002001400000014000002042DC00204209
:10259000DD48006840F00100DB49086008464068FB
:1025A000DA490840D849486008460068D8490840D8
:1025B000D54908600846006820F480200860084675
:1025C000406820F4FE0048604FF41F0088607047A8
:1025D000CD49096821F48031CB4A11601146096860
:1025E00021F480211160B0F5803F03D0B0F5802F39
:1025F0000ED106E0C449096841F48031C24A116035
:1026000007E0C149096841F4A021BF4A116000E018
:1026100000BF00BF704710B5014600220023002014
:102620004A11012A02D1B84C236806E0022A02D1DD
:10263000B54C236A01E0B44C636A01F01F02012427
:1026400094401C4201D0012000E0002010BD38B5AC
:10265000002000900024002500BF3120FFF7DBFFA1
:1026600005460098401C00900098B0F5A06F01D07E
:10267000002DF2D03120FFF7CEFF08B1012400E099
:102680000024204638BD014600209F4A106820F0F3
:10269000F80040EAC100106070479E49086070472A
:1026A00002460020984B586820F47C1042EA01034F
:1026B0001843954B58607047964908667047014625
:1026C0000020914A506820F0030008435060704792
:1026D0008D48406800F00C007047014600208A4A8F
:1026E000506820F0F0000843506070470146002019
:1026F000854A506820F4E060084350607047014606
:102700000020814A506820F4605040EAC1005060C7
:10271000704729B17C4A527A02437B4B5A7204E0DB
:10272000794A527A8243784B5A7270477A490860E4
:10273000704701460020744A506820F44040084326
:10274000506070470021754A11706F4A82F820105E
:10275000012802D0042808D103E001216F4A11703A
:1027600004E005216D4A117000E000BF00BF704712
:102770006B49086070476449096A0143624A116203
:102780007047674944390860704730B5002100221E
:10279000002400235C4D6D6805F00C0121B1042973
:1027A00005D0082923D105E05E4D056022E05D4D8E
:1027B00005601FE0544D6D6805F47012524D6D6850
:1027C00005F48034022505EB92421CB9564D554361
:1027D00005600BE04C4D6D6815F4003F03D0524D81
:1027E0005543056002E04F4D5543056002E04D4DF5
:1027F000056000BF00BF444D6D6805F0F001090998
:102800004A4D6B5C0568DD4045603F4D6D6805F4E1
:10281000E061090A454D6B5C4568DD4085603A4DD5
:102820006D6805F46051C90A404D6B5C4568DD4038
:10283000C560354D6D6805F44041890B3C4D6B5CBE
:10284000C568B5FBF3F5056130BD29B12E4A526963
:1028500002432D4B5A6104E02B4A526982432A4BB2
:102860005A61704729B1284A92690243264B9A61FE
:1028700004E0254A92698243234B9A61704729B14B
:10288000214AD2690243204BDA6104E01E4AD26930
:1028900082431D4BDA61704729B11B4AD26802435B
:1028A000194BDA6004E0184AD2688243164BDA60AA
:1028B000704729B1144A12690243134B1A6104E0AC
:1028C000114A12698243104B1A617047144940390A
:1028D000086070470F49C86470470B49C87170475A
:1028E0000948406A40F080700749486270470146D5
:1028F0000020054A92680A4201D0012000E0002031
:102900007047014988727047001002400000FFF8CC
:10291000FFFFF6FE00004242D80042422010024073
:102920008004424200127A0000093D001901002093
:102930002901002010B50446FB48844209D1012139
:102940008803FFF7A9FF00214FF48040FFF7A4FFA1
:1029500032E0F648844209D101214804FFF7A9FF7B
:1029600000214FF40030FFF7A4FF25E0F048844237
:1029700009D101218804FFF79CFF00214FF480203A
:10298000FFF797FF18E0EB48844209D10121C80402
:10299000FFF78FFF00214FF40020FFF78AFF0BE0C5
:1029A000E548844208D101210805FFF782FF002194
:1029B0004FF48010FFF77DFF10BD2DE9F04786B082
:1029C00005460E460024A24600BFA1460027B08956
:1029D00000B100BF2F462C8A4CF6FF700440F088EF
:1029E00004432C82AC894EF6F3100440B088318940
:1029F0000843718908430443AC81AC8A4FF6FF4019
:102A00000440B0890443AC8201A8FFF7BEFEC6486B
:102A1000874202D1DDF810A001E0DDF80CA0A88902
:102A200010F4004F08D00AEBCA0000EB0A1031681E
:102A30004900B0FBF1F807E00AEBCA0000EB0A100E
:102A400031688900B0FBF1F86420B8FBF0F00401B4
:102A50002009642101FB1089A88910F4004F08D0D7
:102A6000322000EBC900B0FBF1F000F00700044396
:102A700008E0322000EB09106421B0FBF1F000F017
:102A80000F0004432C8106B0BDE8F0874FF41651C7
:102A9000016000218180C18001810C2141810021E0
:102AA0008181704710B502460020108A4FF2FF0363
:102AB00018400B884C8823438C882343CC882343BD
:102AC0001843108210BD0021018041808180C180A7
:102AD000704721B1828942F40052828104E08289E8
:102AE0004DF6FF731A4082817047F0B5034600240B
:102AF000002600250020A1F510676A3F00D100BF25
:102B00001846C1F3421401F01F06012707FA06F523
:102B1000012C01D10C3004E0022C01D1103000E076
:102B200014301AB107682F43076002E00768AF430B
:102B30000760F0BD1AB1838A0B43838202E0838A67
:102B40008B4383827047028A4FF6F0731A400282E9
:102B5000028A0A430282704782894FF2FF731A4049
:102B6000828182890A438281704721B1828942F041
:102B70000202828104E082894FF6FD731A4082814D
:102B80007047028A4FF6DF731A400282028A0A43B4
:102B90000282704721B1028A42F48042028204E03C
:102BA000028A4BF6FF731A4002827047C1F3080293
:102BB0008280704701468888C0F308007047818989
:102BC00041F0010181817047028BD2B20283028BF6
:102BD00042EA012202837047028B02F47F420283A1
:102BE000028B0A430283704721B1828A42F020029D
:102BF000828204E0828A4FF6DF731A408282704735
:102C000021B1828A42F01002828204E0828A4FF669
:102C1000EF731A408282704721B1828A42F0080223
:102C2000828204E0828A4FF6F7731A4082827047EC
:102C300021B1828942F40042828103E08289C2F399
:102C40000E028281704721B1828A42F40062828240
:102C500004E0828A4FF2FF731A4082827047828AB0
:102C60004FF6FB731A408282828A0A43828270473F
:102C700021B1828A42F00202828204E0828A4FF607
:102C8000FD731A408282704702460020B1F5007F32
:102C900000D100BF13880B4201D0012000E00020CA
:102CA000704701F40072B2F5007F00D100BFCA4343
:102CB0000280704770B502460024002300250020E2
:102CC000A1F510666A3E00D100BFC1F3421501F0C4
:102CD0001F03012606FA03F3012D02D19689334022
:102CE00006E0022D02D1168A334001E0968A334075
:102CF0000C12012606FA04F41688344013B10CB104
:102D0000012000E0002070BD10B500220023A1F5D5
:102D100010646A3C00D100BF0A1201249440A3B29F
:102D2000DC43048010BD0000003801400044004036
:102D300000480040004C00400050004010B50446E0
:102D4000FE48844208D10121C014FFF7A5FD0021EF
:102D5000E014FFF7A1FDC4E0B4F1804F08D10121D8
:102D60000846FFF7A6FD00210120FFF7A2FDB8E00D
:102D7000F348844208D101210220FFF79AFD002187
:102D80000220FFF796FDACE0EE48844208D1012115
:102D90000420FFF78EFD00210420FFF78AFDA0E04C
:102DA000E948844208D101210820FFF782FD002173
:102DB0000820FFF77EFD94E0E448844208D1012119
:102DC0001020FFF776FD00211020FFF772FD88E04C
:102DD000DF48844208D101212020FFF76AFD00214D
:102DE0002020FFF766FD7CE0DA48844208D101210B
:102DF0004014FFF751FD00216014FFF74DFD70E016
:102E0000D548844209D10121C804FFF745FD0021BE
:102E10004FF40020FFF740FD63E0D048844209D121
:102E200001210805FFF738FD00214FF48010FFF75E
:102E300033FD56E0CA48844209D101214805FFF715
:102E40002BFD00214FF40010FFF726FD49E0C54897
:102E5000844208D101214020FFF72BFD00214020B2
:102E6000FFF727FD3DE0C048844208D101218020C2
:102E7000FFF71FFD00218020FFF71BFD31E0BB485D
:102E8000844208D101218015FFF713FD0021A01510
:102E9000FFF70FFD25E0B648844209D1012108045F
:102EA000FFF7FAFC00214FF48030FFF7F5FC18E043
:102EB000B048844209D101214804FFF7EDFC00210C
:102EC0004FF40030FFF7E8FC0BE0AB48844208D138
:102ED00001218804FFF7E0FC00214FF48020FFF778
:102EE000DBFC10BD00220288944B98420ED0994B17
:102EF00098420BD0B0F1804F08D0914B984205D04A
:102F0000904B984202D0904B984204D14FF68F7369
:102F10001A404B881A438D4B984207D08C4B9842ED
:102F200004D04FF6FF431A40CB881A4302808B88A7
:102F300083850B880385814B98420BD0854B984243
:102F400008D08B4B984205D08A4B984202D08A4BCE
:102F5000984201D10B7A038601238382704770B5B2
:102F6000002400220023058C4FF6FE7635400584B0
:102F7000028C8388048B4FF68F752C40B51E2C4035
:102F80000D882C43751E2A400D892A434D882A43FB
:102F90006A4DA8420BD06F4DA84208D0744DA8428C
:102FA00005D0744DA84202D0734DA84213D14FF6FC
:102FB000F7752A404D892A434FF6FB752A408D88C4
:102FC0002A434FF6FF652B404FF6FF552B408D8966
:102FD0002B43CD892B4383800483CD88858602844F
:102FE00070BD70B5002400220023058C4FF6EF76EB
:102FF00035400584028C8388048B48F6FF752C408D
:103000004FF6FF452C400D884FF6FF7606EA052562
:103010002C434FF6DF752A400D8906EA05152A4331
:103020004D8806EA05152A43444DA84202D0494D71
:10303000A8421DD14FF67F752A404D894FF6FF7685
:1030400006EA05152A434FF6BF752A408D8806EA21
:1030500005152A434FF6FF352B404FF2FF752B40E5
:103060008D8906EA85052B43CD8906EA85052B4324
:1030700083800483CD880587028470BD70B50024E9
:1030800000220023058C4FF6FF6635400584028C34
:103090008388848B4FF68F752C404FF6FC752C403F
:1030A0000D882C434FF6FF552A400D894FF6FF76C9
:1030B00006EA05252A434D8806EA05252A431F4DC1
:1030C000A84202D0234DA8421DD14FF2FF752A40DD
:1030D0004D894FF6FF7606EA05252A434FF6FF3560
:1030E0002A408D8806EA05252A434EF6FF752B40B7
:1030F0004DF6FF752B408D8906EA05152B43CD89CA
:1031000006EA05152B4383808483CD888587028456
:1031100070BD70B5002200230024058C4EF6FF76AA
:1031200035400584038C8488828B48F6FF752A40DD
:103130004FF6FF452A400D8820E00000002C01409A
:103140000004004000080040000C00400010004057
:103150000014004000340140004C01400050014088
:103160000054014000180040001C004000200040B6
:103170000040014000440140004801404FF6FF7606
:1031800006EA05252A434DF6FF752B400D8906EA10
:1031900005352B434D8806EA05352B43FA4DA842E9
:1031A00002D0FA4DA84208D14BF6FF752C408D890C
:1031B0004FF6FF7606EA85152C4384808283CD88FE
:1031C000A0F84050038470BD828B4FF2FF331A4049
:1031D0008283828B4FF6FF7303EA01231A438283B3
:1031E0007047F0B50C461546002200210026078CDA
:1031F0004EF6FF7C07EA0C070784828B018C4FF6A2
:10320000FF7707EA043640F6FF473A404FF6FF776C
:1032100007EA05273A434FF6FF7707EA03373A43B1
:10322000D94FB8420ED0D94FB8420BD0B0F1804F31
:1032300008D0D74FB84205D0D64FB84202D0D64FAB
:10324000B84206D14DF6FF77394046F480573943EE
:1032500005E047F6FF57394044F4805739438283ED
:103260000184F0BD828B4FF6F3731A408283828B08
:103270000A4382837047F0B50C46154600220021B0
:103280000026078C4FF6FF6C07EA0C070784828B39
:10329000018C4FF6FF7707EA04264FF60C773A4089
:1032A0004FF6FF7707EA03172F433A43B64FB8426A
:1032B0000ED0B64FB8420BD0B0F1804F08D0B44F0B
:1032C000B84205D0B34FB84202D0B34FB84206D18E
:1032D0004FF6FF57394046F48077394305E04FF207
:1032E000FF57394044F48077394382830184F0BD2D
:1032F000028B4FF2FF331A400283028B4FF6FF73AB
:1033000003EA01231A4302837047F0B50C461546C1
:10331000002200210026078C4FF6EF7C07EA0C07FD
:103320000784028B018C4FF6FF7707EA041640F6FC
:10333000FF473A404FF6FF7707EA03373A434FF625
:10334000FF7707EA05273A438F4FB8420ED08F4FD9
:10335000B8420BD0B0F1804F08D08D4FB84205D0A5
:103360008C4FB84202D08C4FB84206D14FF6DF776F
:10337000394046F01007394305E04FF65F77394092
:1033800044F01007394302830184F0BD028B4FF6ED
:10339000F3731A400283028B0A4302837047F0B52D
:1033A0000C46154600220021068C4FF6FE773E4063
:1033B0000684028B018C4FF60C7632407E1C06EAA6
:1033C00003162E433243704EB0420ED06F4EB042C1
:1033D0000BD0B0F1804F08D06D4EB04205D06D4E8D
:1033E000B04202D06C4EB04206D14FF6FD7631406D
:1033F00044F00106314305E04FF6F576314044F0E4
:103400000106314302830184F0BD70B505460C46C8
:103410005D4885420ED05D4885420BD0B5F1804FA6
:1034200008D05B48854205D05A48854202D05A48A8
:10343000854200D100E000BF208850B92389A288CE
:1034400061882846FFF7ABFFE1882846FFF79EFF1B
:1034500025E0208804280AD12389A288618828468B
:10346000FFF753FFE1882846FFF742FF17E0208867
:1034700008280AD12389A28861882846FFF7FBFE25
:10348000E1882846FFF7EEFE09E02389A2886188DB
:103490002846FFF7A6FEE1882846FFF795FE70BD97
:1034A0002DE9F04105460C4600260127608808B941
:1034B000022600E00026A088012801D1022700E0B2
:1034C00001272088A0B92389A28861882846FFF7B0
:1034D00066FFE1882846FFF759FF23893A463146BF
:1034E0002846FFF712FFE1882846FFF701FF13E0A7
:1034F0002389A28861882846FFF707FFE1882846CC
:10350000FFF7F6FE23893A4631462846FFF747FF84
:10351000E1882846FFF73AFFBDE8F0810A884B882A
:103520001A438B881A43CB881A430B891A434B8959
:103530001A438B891A43A0F8442070474FF6FF7155
:10354000818000210180C18041800172704700218B
:10355000018041808180C180018141818181C1815F
:103560007047002101804180012181800021C180BC
:10357000018170470021018041808180C1800181EB
:103580004181818170470000002C014000340140DE
:103590000004004000080040000C004021B10288F7
:1035A00042F00102028004E002884FF6FE731A40E6
:1035B0000280704731B1B0F8442042F40042A0F8D4
:1035C000442005E0B0F84420C2F30E02A0F84420E5
:1035D00070471AB183890B43838102E083898B434F
:1035E000838170478182704741EA0203A0F8483026
:1035F00070471AB183890B43838102E083898B432F
:103600008381704701894FF6F8721140018170473C
:103610000A46002101894FF68F7319401143018139
:10362000704730B504460D4629462046FFF7F0FFA7
:10363000208940F00700208130BD2DE9F04104468B
:103640000D4616461F46602D06D13B4601223146E7
:103650002046FFF75AFE05E03B4601223146204650
:10366000FFF79DFE29462046FFF7D2FF208940F054
:1036700007002081BDE8F08130B50C4600210189AA
:10368000C9B24FF6FF7505EA0325154325432943C3
:10369000018130BD2DE9F04105460E46174698469A
:1036A000002443463A4631462846FFF7E5FF2C8979
:1036B0004FF6F870044044F007044FF68F70044052
:1036C00044F070042C81BDE8F081F0B504460D464D
:1036D00016461F463B46324629462046FFF7CCFF9A
:1036E000208940F480402081F0BD018582827047AE
:1036F0000A46002101884FF68F731940114301805B
:103700007047F0B50C4615461E46002100220023E6
:103710000189028B038C4FF6F877394021434FF62D
:10372000FC473A4040F201173A434FF6DD773B4001
:103730004FF6FF7707EA06172F433B4301810283C9
:103740000384F0BD0A460021018B4FF68F731940A8
:103750001143018370470A460021018B48F6FF732D
:1037600019404FF6FF7303EA0223194301837047A0
:103770000A460021818B4FF68F73194011438183D4
:1037800070470A460021818B48F6FF7319404FF6B7
:10379000FF7303EA022319438183704721B1028832
:1037A00042F08002028004E002884FF67F731A40E4
:1037B0000280704721B1828842F00402828004E0D6
:1037C00082884FF6FB731A408280704721B182884D
:1037D00042F00802828004E082884FF6F7731A40B4
:1037E0008280704721B1828842F00102828004E029
:1037F00082884FF6FE731A40828070470A46002185
:10380000018B4FF6F77319401143018370470A4645
:103810000021018B4FF2FF7319404FF6FF7303EA4B
:1038200002231943018370470A460021818B4FF61A
:10383000F77319401143818370470A460021818B39
:103840004FF2FF7319404FF6FF7303EA0223194347
:10385000818370470A460021018B4FF6FB731940A4
:103860001143018370470A460021018B4FF6FF3355
:1038700019404FF6FF7303EA02231943018370478F
:103880000A460021818B4FF6FB7319401143818357
:1038900070470A460021818B4FF6FF3319404FF6DF
:1038A000FF7303EA02231943818370470A4600210C
:1038B000018B4FF67F7319401143018370470A460D
:1038C0000021018BC1F30E014FF6FF7303EA0223BF
:1038D0001943018370470A460021818B4FF67F739D
:1038E00019401143818370470A460021818BC1F33F
:1038F0000E014FF6FF7303EA0223194381837047D9
:103900000A460021018C4FF6FD73194011430184D2
:1039100070470A460021018C4FF6F7731940114396
:10392000018470470A460021018C4FF6DF7319406D
:103930004FF6FF7303EA02131943018470470A46E6
:103940000021018C4FF67F7319404FF6FF7303EA95
:1039500002131943018470470A460021018C4FF677
:10396000FF5319404FF6FF7303EA02231943018402
:1039700070470A460021018C4FF2FF7319404FF641
:10398000FF7303EA02231943018470470A460021AA
:10399000018C4DF6FF7319404FF6FF7303EA0233B3
:1039A00019430184704730B5002301248C40A3B231
:1039B000048C9C430484048C02FA01F5ADB22C43C0
:1039C000048430BD30B5002304248C40A3B2048CA1
:1039D0009C430484048C02FA01F5ADB22C430484A8
:1039E00030BD70B50346002000241846183001256C
:1039F0008D40ACB21D8CA5431D8409B1082909D1A5
:103A000000EB6100056825F0700505600568154349
:103A100005600EE00D1FC5F34E052844056825F42A
:103A2000E045056005684FF6FF7606EA0226354355
:103A3000056070BD21B1028842F00202028004E0FC
:103A400002884FF6FD731A400280704721B1028848
:103A500042F00402028004E002884FF6FB731A4031
:103A60000280704721B1828842F08002828004E0A7
:103A700082884FF67F731A408280704702884FF623
:103A8000F7731A40028002880A43028070478288D6
:103A90004FF68F731A40828082880A438280704773
:103AA00002894FF6F8731A40028102890A430281A3
:103AB000704702894FF67F731A40028102890A43D8
:103AC0000281704781847047818570478186704785
:103AD0000187704781877047A0F8401070470288BF
:103AE0004FF6FF431A40028002880A430280704763
:103AF0000146888E70470146088F70470146888FBF
:103B000070470146B1F8400070470146888C704705
:103B10000146088D704702460020138A0B4201D0EF
:103B2000012000E000207047CA430282704730B590
:103B30000246002000230024158A05EA0103958926
:103B400005EA010413B10CB1012000E0002030BDF2
:103B5000CA4302827047000010B50446FA48844206
:103B600008D101214015FEF797FE00216015FEF7F0
:103B700093FE17E0F548844208D101210015FEF7B5
:103B80008BFE00212015FEF787FE0BE0F0488442F3
:103B900008D10121C803FEF77FFE00214FF4004049
:103BA000FEF77AFE10BD30B50246002000235068B3
:103BB000E84C20400D790C6844EA0524204350600D
:103BC0009068E54C2040D1E902542C434D7944EAF9
:103BD000450420439060D06A20F470000C7C641E81
:103BE000E4B2234340EA0350D06230BD00210160BB
:103BF000017141718160C16001210174704721B17F
:103C0000826842F00102826003E0826822F00102D1
:103C10008260704721B1826842F48072826003E062
:103C2000826822F480728260704710B50023CBB2A4
:103C30001AB144681C43446002E044689C434460F9
:103C400010BD816841F00801816070470146002085
:103C50008A6812F0080F01D0012000E000207047B0
:103C6000816841F0040181607047014600208A6844
:103C700012F0040F01D0012000E00020704721B1B4
:103C8000826842F4A002826003E0826822F4A0020B
:103C900082607047014600208A6812F4800F01D0CC
:103CA000012000E00020704710B50A4600210023E3
:103CB000416821F46041531E41EA4331416010BD27
:103CC00021B1426842F40062426003E0426822F49B
:103CD000006242607047F0B504460D4600200021A6
:103CE000092D11DDE068A5F10A0606EB4607072657
:103CF00006FA07F18843A5F10A0606EB460603FA21
:103D000006F10843E0600CE0206905EB4507072653
:103D100006FA07F1884305EB450603FA06F1084366
:103D20002061072A0FDA606B561E06EB86071F26F6
:103D300006FA07F18843561E06EB860605FA06F1D9
:103D40000843606322E00D2A0FDA206BD61F06EBD2
:103D500086071F2606FA07F18843D61F06EB86065C
:103D600005FA06F10843206310E0E06AA2F10D06AF
:103D700006EB86071F2606FA07F18843A2F10D0617
:103D800006EB860605FA06F10843E062F0BD21B1B4
:103D9000826842F48012826003E0826822F480121A
:103DA000826070470146C86C80B2704766484C30EC
:103DB0000068704721B1426842F48062426003E0CB
:103DC000426822F480624260704721B1426842F446
:103DD0008052426003E0426822F4805242607047A1
:103DE0000A460021816821F4E04111438160704757
:103DF00021B1826842F40042826003E0826822F4CA
:103E000000428260704721B1826842F402128260EF
:103E100003E0826822F402128260704701460020AB
:103E20008A6812F4001F01D0012000E000207047D2
:103E3000F0B504461546002000220026092911DDB0
:103E4000E068A1F10A0707EB470C072707FA0CF215
:103E50009043A1F10A0707EB470703FA07F2104363
:103E6000E0600CE0206901EB410C072707FA0CF237
:103E7000904301EB410703FA07F210432061A06B66
:103E8000C0F30156EF1C06F1010CA7EB0C0707EB82
:103E9000870C1F2707FA0CF29043EF1C06F1010C68
:103EA000A7EB0C0707EB870701FA07F21043A063A3
:103EB000F0BD10B50A4600210023816B21F44011AA
:103EC000531E41EA0351816310BD08B500230093DE
:103ED0000090009B0B440093009B1A6008BD08B53E
:103EE000024600200090009201F12800009B184437
:103EF00000900098006880B208BD0A460021416821
:103F0000164B19401143416070474162826270470D
:103F10000A460021416821F01F01114341607047AA
:103F200040B109490831096841F40001064A0832E4
:103F3000116007E004490831096821F40001024AD0
:103F40000832116070470000002401400028014041
:103F5000003C0140FFFEF0FFFDF7F1FFFFFD3FFFDA
:103F60000246002013680B4201D0012000E000202F
:103F70007047CA430260704770B5024600200023B4
:103F800000240B125568CEB205EA060415681D42DE
:103F900002D00CB1012000E0002070BD00220A1206
:103FA000D34303607047704770477047704770474E
:103FB000754600F029F8AE4605006946534620F0E4
:103FC0000700854618B020B5FEF7B6F8BDE82040DA
:103FD0004FF000064FF000074FF000084FF0000BC5
:103FE00021F00701AC46ACE8C009ACE8C009ACE878
:103FF000C009ACE8C0098D4670470446AFF30080A5
:104000002046FCF7FCF8000000487047D407002069
:1040100021F00042A2F16052B2F5801F01F000438E
:1040200028BFD2F17F6C0BD95FEA001C43EAC202C1
:1040300042EB507018BF704728BF20F00100704756
:10404000B2F5801FBCBF184670474FEA410C1CF503
:10405000001F02D2084600F03EBF70B500F03CFBE6
:1040600000000089FFF7F6BF4FF00040A0F5800088
:104070007047000010B591EA030F48BF83F000437A
:1040800000F1BC83841A71EB030C05D2121943EBC7
:104090000C03001B61EB0C01DFF824E14FEA115423
:1040A000A4EB135C1EEA430F18BF9EEA445F73D073
:1040B00023EA0E03DCF1200E21EA045143F48013BD
:1040C00032D322FA0CFE10EB0E0023FA0CFE41EB69
:1040D0000E01CCF1200E03FA0EFE10EB0E0051F192
:1040E0000001B1F5801FCCF1200E32D201EB04515A
:1040F00012FA0EF2BDE8104058BF7047401C38BF9E
:104100005FEA420218BF7047002814BF20F0010088
:1041100041F100014FEA410313F5001F38BF70471A
:10412000A1F1C04100F026BB012A43EB0302ACF130
:10413000200CDCF11F0E32BF4FF0000E23FA0CF3FF
:1041400010EB030041EB0451B4EB115FD0D0A1EBB5
:10415000045101F5801149085FEA300001EB045178
:104160000ED350F1000038BF12FA0EFE08D1BDE8A0
:104170001040C9E7401C38BF5FEA4202CAD1C3E71A
:10418000BDE810404FEA410313F5001F38BF7047E8
:10419000A1F1C04100F0EEBA9EEA445F08D011EAF6
:1041A0005E0FBDE8104004BF01F0004100207047E1
:1041B000BDE8104070B500F08FFA00BF64FBBE3E52
:1041C0000000E0FF491058BFC1F140415B1058BFEB
:1041D000C3F140438B42EFF3008070472DE9C041AB
:1041E00030B4DFF8A0C23CEA111418BF3CEA131443
:1041F00000F0EC8081EA03051CEA111444EAD5744E
:1042000018BF1CEA131500F0C780A4EB05044FF09B
:10421000004545EAC12145EAC32341EA505143EA3A
:10422000525304F17F74994204F500344FEAC020E0
:104230004FEAC22208BF904200F09C804FEA13650B
:104240000FF24016765D4FEA134506FB05F7C7F1FE
:10425000807706FB07F74FEAD737A7FB036876425C
:10426000C8F58038A7FB06CE38BFA8F1010807FBC8
:1042700008E64FF0000EA6FB028CE6FB03CEDCF155
:10428000000CCEF1004E38BFAEF1010EA6FB0C586B
:104290004FF000074FF00005E6FB0E87A1FB08C6B4
:1042A000A0FB07CE16EB0E0645F10005E1FB076506
:1042B00015F1E04E7EBFA4F580345FEA46066D41FD
:1042C00016F1800745F100054FEA17274FEA066609
:1042D00047EA0567A6F1DE46B6F1805F4FEA15258D
:1042E0001FD9384624F0010C05EBC471BCF1FE6FF8
:1042F00001EB0C1102D8F0BCBDE8008124425CBF88
:1043000001F5801E9EEAC47F02D4F0BCBDE80081A6
:10431000244238D4F0BCA1F1C041BDE8004100F016
:1043200029BA4FEAD22242EA43524FEAD323A7FBEB
:1043300002864FEAD02040EA415007FB03661EEA9E
:104340000E0F4FEAD12105FB026658BFA6EB0056BF
:10435000B6EB00564FEA520E4EEAC37E18EB0E0E35
:1043600056EB530EBDD518EB02085E417F1C55F18C
:104370000005B6E74FF480154FF000074FF0000638
:104380004FF00008ADE7F0BC4FF0000001F1C04174
:1043900001F00041BDE8008111EA0C1F0CEA131581
:1043A00000D00CE013EA0C1F00F025804FF0000055
:1043B000F0BC81EA030101F00041BDE80081F0BCDE
:1043C000BDE8004181EA030100F0D4B9F0BCBDE8CA
:1043D000004170B500F080F9097EFC3E00F007B89E
:1043E00081EA03014FF0000001F00041704781EACB
:1043F000030100F0BFB9F0BCBDE800414FF0000080
:1044000021497047FFFDFBF9F7F5F4F2F0EEEDEB13
:10441000E9E8E6E4E3E1E0DEDDDBDAD8D7D5D4D3C2
:10442000D1D0CFCDCCCBCAC8C7C6C5C4C2C1C0BF0E
:10443000BEBDBCBBBAB9B8B7B6B5B4B3B2B1B0AF14
:10444000AEADACABAAA9A8A8A7A6A5A4A3A3A2A1F8
:10445000A09F9F9E9D9C9C9B9A99999897979695B3
:1044600095949393929191908F8F8E8E8D8C8C8B4F
:104470008B8A8989888887878685858484838382D7
:10448000828181800000FF070000F87F4FEA11530E
:10449000A3F58063D3F11E03A8BFD3F1200C08DB82
:1044A0004FF0004242EAC12252EA505232FA03F07F
:1044B000704709420BD4102BC4BF0020704703F58E
:1044C000787CBCF1FF3F05D04FF0FF3070474FF0D4
:1044D0000000704770B500F0FFF800BF49922480DB
:1044E00000207047F0E7B0FA80F310FA03F10AD029
:1044F000C3F11D0303F580634FEA41504FEA0352B5
:1045000002EBD12170474FF00000704751EA030CD5
:1045100017D41CF5801F58BFBCF5801F00F1068022
:10452000994218BF704708BF9042704707D711F5EE
:10453000801F58BF13F5801F19D4994270478942D4
:1045400070471CF5801F08D5BCF5801FF7D58B423E
:1045500018BF704708BF824270474FF4001C1CEB25
:10456000410F38BF1CEB430F01D28B42704770B52F
:1045700000F0B2F8922449004FF000514FF0805300
:10458000FFF720BEDFF848C170B51CEA111E1EBF40
:104590001CEA13159EEA0C0F95EA0C0F00F06F80D1
:1045A00081EA030423EA4C134EEAD47E21EA4C113B
:1045B00041F4801143F48013AE44A1FB024CA0FBF4
:1045C0000365AEF17F7E361955EB0C05A1FB034C5C
:1045D0004CF10003A0FB021C16EB0C06654153F1E5
:1045E0000003094218BF46F0010613F4007F0BD107
:1045F0004FEA03314FEA0530340341EA155140EAEE
:1046000016506FF003020AE04FEAC3214FEAC520BB
:10461000F40241EA555140EA56506FF0020202EBB3
:104620002E4201EB025585EACE710AD05FEA440CB6
:1046300018BF24F0004450F1000041F1000120EACD
:10464000D47040F2FE7C624500D270BDA84214BF17
:104650004FF080444FF04044002E08BF0024BEF1CC
:10466000806FA8BFA1F1C041BDE8704080F2828098
:104670004FF0000001F1C04101F0004170479EEA97
:104680000C0F0CEA131518BF95EA0C0F06D04FF06B
:10469000000081EA030E0EF0004170BD00F01CF82E
:1046A0008900013E00F007B800F009B84FEA430C5A
:1046B0005FEA5C5C08D081EA030100F05BB84FEA76
:1046C000410C5FEA5C5CF6D14FF000000149704795
:1046D0000000FF070000F87F0EF1020E2EF0030E1F
:1046E0005EF8046B364205D4012A43EB030515F549
:1046F000001F12D8012841EB010C1CF5001F0CD83B
:104700000ED14FEAD17C15F5001F0CEB4C0C0CF1CF
:10471000020C08BF4CEBD37C04E04FF0080C01E026
:104720004FEAD37C0CEB4C0526FA05F606F007069B
:10473000B6F1040C06D20EEB860CBDE870404CF0CE
:10474000010C6047DFE80CF0090B02024FF000415A
:104750004FF00000A1F5002170BD19461046012858
:1047600051EB010418BFD4F5001484BF002001F000
:10477000004170BD0808A0F500114FEA31017047F3
:1047800053EA010C17D41CF5801F58BFBCF5801FDD
:1047900000F106808B4218BF704708BF8242704705
:1047A00007D713F5801F58BF11F5801F19D48B420E
:1047B00070479B4270471CF5801F08D5BCF5801FD1
:1047C000F7D5994218BF704708BF904270474FF421
:1047D000001C1CEB430F38BF1CEB410F01D2994268
:1047E00070470FB40CBC03BCFFF7C1BE10B591EA13
:1047F000030F48BF83F000433FF544AC841A71EBCC
:10480000030C07D212198CF0004C43EB0C03001B75
:1048100061EB0C01DFF8A4E14FEA1154A4EB135C47
:104820001EEA430F18BF9EEA445F00F0B08023EAFF
:104830006E03524221EA0451C3EB6E0338BF5B1E84
:10484000DCF1200E25D322FA0CFE10EB0E0043FA09
:104850000CFE41EB0E01CCF1200E03FA0EFE10EB24
:104860000E0051F10001CCF1200E29D412FA0EF203
:1048700001EB0451BDE8104058BF7047401C1CBFFD
:10488000B2F1004F704700280CBF491C20F0010016
:10489000704712EB020E43EB030218BF4FF0010EFC
:1048A0004EEA4202ACF1200CDCF11E0E54D943FA60
:1048B0000CFE10EB0E0051F1FF31CCF11E0ED5D5E0
:1048C0000EF1010E12FA0EFE404141EB010101EB27
:1048D000445C5FEA5C5C10D910EBDE7001EB0451C4
:1048E00038BFBEF1004FBDE8104018BF7047002828
:1048F0000CBF491C20F00100704730D24FEAD42C85
:1049000011F5001124F400641BD0B1FA81F20B3AC6
:10491000A41AA41ED2F12003914030FA03F31943E4
:10492000904001EBCC71002C01EB0451BDE810402C
:10493000A8BF704701F1C0414FF0000001F00041F5
:104940007047B0FA80F310FA03F100D110BDE41AF9
:10495000173C4805C90AE4E701EB045110BD4910B2
:1049600001EB0451BDE810404FEA300002E04FF087
:10497000000170474A0008BF0042F8D0B2F5001F9E
:1049800028BF704701F000414FF0000070479EEAD9
:10499000445F07D011EA5E0FBDE8104004BF00215C
:1049A00000207047BDE8104070B5FFF795FE00BFCE
:1049B00040DFF63E83F00041104670470000E0FF04
:1049C00043004FEAD30C4FEA3C0C43401FBF400763
:1049D0000CF1605113F0FE4F70471CF0006F03D1D3
:1049E00000200CF0004170470CF0004343EA507087
:1049F00010B540EACC0000F028FA00BF0000009299
:104A00004FEA0001FFF7B6BE4FF000414FF0000043
:104A1000A1F500217047000090EA010F48BF81F026
:104A2000004100F19682421A3CBF801A89184FEA71
:104A3000D0524FF07F4C1CEA410FA2EBD15318BF6C
:104A40009CEA026F00F03B804FF0004C4CEA0020E3
:104A50004CEA012121FA03FC10EB0C0C1ED202F1EE
:104A6000FF325FEA1C2040EBC25038BF70471CF099
:104A70007F0F4FEA400C18BFBCF17F4F38BF704723
:104A8000C3F12003994008BF20F00100BCF17F4F23
:104A900038BF7047A0F1C04000F01DBA4FEA3C009B
:104AA000000A40EBC25028BF1CF0FF0F4FEA400C39
:104AB000E6D018BFBCF17F4F38BF7047EAE79CEAE9
:104AC000026F05D010EA5C0F08BF00F0004070478D
:104AD00010B500F0BAF900BF64FBBE3E401058BFED
:104AE000C0F14040491058BFC1F140418142EFF34D
:104AF000008070474FF47F0C1CEAD0121EBF1CEAE6
:104B0000D11392EA0C0F93EA0C0F00F0858090EA23
:104B1000010F48BF42F4807240F4000C41F40000E1
:104B20002CF07F4120F07F4000B58142A2EB0302D0
:104B30000FF2081CACEB504EC0F100009EF800E0F4
:104B40004FEA4E0E00FB0EFC38BF49004FEA2C1C0A
:104B500002F5FA020CFB0EF34FEACE1E4FEA112CBF
:104B60004FEAC1210EEB635E42EB22420EFB0CFCCE
:104B70004FEA1C5300FB03114FEA112C4FEA01319D
:104B80000EFB0CFC4FEADC4C00FB0C11C14228BFB1
:104B900009184CEB03335DF804EB10EB410143EBD8
:104BA000C250B2F57C0F38BF704729D512F0F00F14
:104BB0001CBF00F1C04000F00040704700818283BC
:104BC0008485868788898B8C8D8E8F91929395961C
:104BD00097999A9C9D9FA0A2A3A5A7A8AAACAEB0A6
:104BE000B2B3B5B7B9BCBEC0C2C5C7C9CCCED1D4AB
:104BF000D7D9DCDFE2E6E9ECF0F3F7FAFE000000DB
:104C00004FEA400C0CF1807CBCF17E4F28BF70470E
:104C1000B0F1C04000F05FB990EA010F0CEAD11387
:104C200048BF42F48072624538BF634507D213F42F
:104C30007F0F16D080EA010000F00040704710B5E9
:104C400000F003F9097EFC3E00F005B880EA01009F
:104C500000F00040704780EA010000F0004000F0E2
:104C60003AB912F47F0F04BF0248704780EA01008E
:104C700000F031B90000C07FC10DD1F19E0206DB0A
:104C80004FEA002343F0004323FA02F0704700424A
:104C900007D54FEA4001B1F1FE4F02D24FF00000BC
:104CA000704710B500F0D1F8499224800020704779
:104CB0006FEA200070470000B0FA80F310FA03F2A8
:104CC000C3F19D030AD0D90501EB1220530638BF6A
:104CD000704700F1010008BF20F00100704700009C
:104CE00050EA010C00F113801CF5000F58BFBCF511
:104CF000000F01D48842704707D710F5000F58BF46
:104D000011F5000F15D488427047894270471CF591
:104D1000000F04D5BCF5000FF7D5814270474FF066
:104D2000807C1CEB400F38BF1CEB410F01D281424D
:104D3000704710B500F089F8922449004FF00050F8
:104D40004FF08051FFF7CABE4FF47F0C1CEAD0121F
:104D50001EBF1CEAD11392EA0C0F93EA0C0F00F06D
:104D6000478090EA010F48BF42F480724FF0004C38
:104D70004CEA00204CEA012102EB0302A0FB0113E4
:104D8000A2F50002002918BF43F001035B0028BF11
:104D90004FEA330342EB22425FEA132C4CEBC25042
:104DA0002EBFBCEB436FB2F57C0F70474FEA036C2C
:104DB000BCF1004F08BF20F00100B2F57C0F38BFF6
:104DC00070470BD582F0FF0212F5803FC8BF7047D5
:104DD00000F1C040D8BF00F00040704700F5000C63
:104DE0005FEA4C0C48BF7047B0F1C04000F073B8A8
:104DF00090EA010F0CEAD11348BF42F48072624579
:104E000038BF634504D280EA010000F000407047DB
:104E100010B500F01AF800BF8900013E00F007B895
:104E200000F009B85FEA410C5FEA1C6C08D080EA28
:104E3000010000F050B85FEA400C5FEA1C6CF6D14C
:104E40004FF00040A0F5800070470EF1020E2EF0EA
:104E5000030E5EF8044B244204D44FEA4102B2F13F
:104E60007F4F11D84FEA4003B3F17F4F0CD80ED1DA
:104E70004FEAD07CB2F17F4F0CEB4C0C0CF1020CE2
:104E800008BF4CEBD17C04E04FF0080C01E04FEA86
:104E9000D17C0CEB4C0324FA03F404F00704B4F1C6
:104EA000040C06D20EEB840CBDE810404CF0010C53
:104EB0006047DFE80CF0070802024FF00040A0F561
:104EC000800010BD0846420018BFD2F1807288BF32
:104ED00000F0004010BDFF2141EAD050C0057047EE
:104EE00051EA000C00F113801CF5000F58BFBCF50F
:104EF000000F01D48142704707D711F5000F58BF4A
:104F000010F5000F15D481427047894270471CF597
:104F1000000F04D5BCF5000FF7D5884270474FF05D
:104F2000807C1CEB410F38BF1CEB400F01D2884244
:104F3000704780EA010081EA000180EA0100FFF782
:104F4000F8BE000090EA010F48BF81F000413FF534
:104F50006AAD421A04D882F00042A0EB020011446C
:104F60004FEAD0524FF07F4C1CEA410FA2EBD153D5
:104F700018BF9CEA026F4AD04FF0004C4CEA002068
:104F80004CEA012121FA03FCB0EB0C0C0FD412F017
:104F9000FE0F36D05FEA4C001DD5001240EBC25028
:104FA00038BF70471CF03F0F18BF70470BE0A2F1ED
:104FB00001025FEA1C2040EBC25038BF70471CF072
:104FC0007F0F18BF7047C3F12003994014BF401EE4
:104FD00020F00100704780084FEA122308BF704795
:104FE000B0FA80FCA2EB0C02CCF1280C60FA0CF0B9
:104FF00093EA122F04BF00EBC25070474FEAC37010
:105000007047130A5FEADC1008BF7047F6E79CEAB6
:10501000026F04D010EA5C0F08BF0020704710B583
:10502000FFF713FF40DFF63E81F0004070470000BD
:105030005050000800000020300100006C01000802
:105040007050000830010020080D0000C801000861
:1050500001BD84A24A04800C01020304060708096A
:10506000015AA5890A0138295569593502040608EB
:0400000508000131BD
:00000001FF
